:100000000C9435000C9452000C9452000C94520045
:100010000C9452000C9452000C9452000C94520018
:100020000C9452000C9452000C9452000C94520008
:100030000C9452000C9452000C9452000C945200F8
:100040000C9454000C9452000C9452000C945200E6
:100050000C9452000C9452000C9452000C945200D8
:100060000C9452000C945200E80011241FBECFEFF4
:10007000D8E0DEBFCDBF21E0A0E0B1E001C01D921D
:10008000AF31B207E1F710E0C5E3D0E004C021973B
:10009000FE010E948501C433D107C9F70E949E006A
:1000A0000C948B010C9400001F920F920FB60F92CC
:1000B00011242F933F938F939F93AF93BF9380917E
:1000C0001B0190911C01A0911D01B0911E01309166
:1000D0001A0123E0230F2D3720F40196A11DB11D35
:1000E00005C026E8230F0296A11DB11D20931A0119
:1000F00080931B0190931C01A0931D01B0931E01DE
:100100008091160190911701A0911801B0911901E9
:100110000196A11DB11D8093160190931701A09324
:100120001801B0931901BF91AF919F918F913F91A9
:100130002F910F900FBE0F901F901895789484B553
:10014000826084BD84B5816084BD85B5826085BDD3
:1001500085B5816085BD80916E00816080936E0061
:100160001092810080918100826080938100809153
:100170008100816080938100809180008160809304
:1001800080008091B10084608093B1008091B000C4
:1001900081608093B00080917A00846080937A00BF
:1001A00080917A00826080937A0080917A008160E9
:1001B00080937A0080917A00806880937A00109210
:1001C000C100C0E0D0E02097F1F30E940000FBCF17
:1001D0001092020110920301109204011092050185
:1001E0001092060110920701109208011092090165
:1001F00010920A0110920B0110920C0182E090E023
:10020000909301018093000181E080930D0180E0D3
:1002100090E0A0E2B2E48093120190931301A093C6
:100220001401B093150180E090E0AEEBB2E480934E
:100230000E0190930F01A0931001B093110182E47D
:1002400080937C0080917A00806480937A00809112
:100250007A0086FDFCCF609178008091790070E093
:10026000782B072E000C880B990B0E944A01609393
:100270000201709303018093040190930501609340
:100280000601709307018093080190930901089576
:10029000E89409C097FB3EF4909580957095619520
:1002A0007F4F8F4F9F4F9923A9F0F92F96E9BB27D6
:1002B0009395F695879577956795B795F111F8CF52
:1002C000FAF4BB0F11F460FF1BC06F5F7F4F8F4FBD
:1002D0009F4F16C0882311F096E911C0772321F0B3
:1002E0009EE8872F762F05C0662371F096E8862F4B
:1002F00070E060E02AF09A95660F771F881FDAF7A2
:10030000880F9695879597F90895EE0FFF1F059032
:0A031000F491E02D0994F894FFCF5A
:107E0000112484B714BE81FFF0D085E080938100F7
:107E100082E08093C00088E18093C10086E0809377
:107E2000C20080E18093C4008EE0C9D0259A86E02C
:107E300020E33CEF91E0309385002093840096BBD3
:107E4000B09BFECF1D9AA8958150A9F7CC24DD24C4
:107E500088248394B5E0AB2EA1E19A2EF3E0BF2EE7
:107E6000A2D0813461F49FD0082FAFD0023811F036
:107E7000013811F484E001C083E08DD089C08234E0
:107E800011F484E103C0853419F485E0A6D080C0E4
:107E9000853579F488D0E82EFF2485D0082F10E0AE
:107EA000102F00270E291F29000F111F8ED06801E7
:107EB0006FC0863521F484E090D080E0DECF843638
:107EC00009F040C070D06FD0082F6DD080E0C81688
:107ED00080E7D80618F4F601B7BEE895C0E0D1E017
:107EE00062D089930C17E1F7F0E0CF16F0E7DF06D8
:107EF00018F0F601B7BEE89568D007B600FCFDCFD4
:107F0000A601A0E0B1E02C9130E011968C91119780
:107F100090E0982F8827822B932B1296FA010C0160
:107F200087BEE89511244E5F5F4FF1E0A038BF0790
:107F300051F7F601A7BEE89507B600FCFDCF97BE46
:107F4000E89526C08437B1F42ED02DD0F82E2BD052
:107F50003CD0F601EF2C8F010F5F1F4F84911BD097
:107F6000EA94F801C1F70894C11CD11CFA94CF0C13
:107F7000D11C0EC0853739F428D08EE10CD085E9AC
:107F80000AD08FE07ACF813511F488E018D01DD067
:107F900080E101D065CF982F8091C00085FFFCCF94
:107FA0009093C60008958091C00087FFFCCF809118
:107FB000C00084FD01C0A8958091C6000895E0E648
:107FC000F0E098E1908380830895EDDF803219F02E
:107FD00088E0F5DFFFCF84E1DECF1F93182FE3DFCA
:107FE0001150E9F7F2DF1F91089580E0E8DFEE27F6
:047FF000FF270994CA
:027FFE00040479
:0400000300007E007B
:00000001FF